:020000040800F2
:1000000098280020D9010008F72700085726000883
:10001000F52700085F030008754400080000000091
:10002000000000000000000000000000AF280008F1
:100030006105000800000000AD280008B128000894
:10004000F3010008F3010008F3010008F3010008C0
:10005000F3010008F3010008F3010008F3010008B0
:10006000F3010008F3010008F3010008F3010008A0
:10007000F3010008F3010008B1040008F3010008CF
:10008000F3010008F3010008F3010008F301000880
:10009000F3010008F3010008F3010008F301000870
:1000A000F3010008A5290008F3010008F301000886
:1000B000F3010008F3010008F3010008F301000850
:1000C000F3010008F3010008F3010008F301000840
:1000D000F3010008F3010008F3010008392F0008BC
:1000E000F3010008F3010008F3010008F301000820
:1000F000F3010008F3010008F3010008F301000810
:1001000000000000F3010008F3010008F3010008FB
:100110000000000000000000F3010008F3010008E7
:10012000F3010008F3010008F3010008F3010008DF
:10013000F3010008F3010008F3010008F3010008CF
:10014000F3010008F3010008F30100081928000872
:10015000F3010008F3010008F3010008F3010008AF
:10016000F3010008F3010008000000000000000097
:10017000000000000000000000000000000000007F
:10018000F3010008F3010008000000000000000077
:10019000F3010008F3010008000000000000000067
:1001A000000000000000000000000000000000004F
:1001B000F30100080000000000000000F301000847
:1001C000F3010008DFF80CD000F08CF8004800477D
:1001D000E544000898280020064880470648004764
:1001E000FEE7FEE7FEE7FEE7FEE7FEE7FEE7FEE7E7
:1001F000FEE7FEE751290008C50100082DE9F05F80
:100200000546002092469B46884606468146402485
:100210001BE0284641464746224600F053F8534625
:100220005A46C01A914110D311461846224600F092
:100230003AF82D1A67EB01084F46224601200021AB
:1002400000F031F817EB00094E41201EA4F1010423
:10025000DFDC484631462A464346BDE8F09F40EA87
:1002600001039B0703D009E008C9121F08C0042A34
:10027000FAD203E011F8013B00F8013B521EF9D21B
:100280007047D2B201E000F8012B491EFBD2704743
:100290000022F6E710B513460A4604461946FFF752
:1002A000F0FF204610BD202A04DB203A00FA02F1BC
:1002B000002070479140C2F1200320FA03F3194354
:1002C00090407047202A04DB203A21FA02F00021F6
:1002D000704721FA02F3D040C2F120029140084356
:1002E00019467047064C074D06E0E06840F00103F0
:1002F00094E8070098471034AC42F6D3FFF766FF46
:10030000D8450008F845000870B58C1810F8015B56
:1003100015F0070301D110F8013B2A1106D110F89E
:10032000012B03E010F8016B01F8016B5B1EF9D1A2
:100330002B0705D40023521E0DD401F8013BFAE728
:1003400010F8013BCB1A921C03E013F8015B01F893
:10035000015B521EF9D5A142D8D3002070BDFEE743
:1003600010B5042824DD134A202802D021281FD1EB
:100370000DE0CB78086863F31F6010600879107196
:10038000487950718879907100F048F810E0107841
:1003900008701088000A48701068000C8870106897
:1003A000000EC87010790871507948719079887181
:1003B000002010BD4C00002010B5044801F083FF60
:1003C00008B100F0CEF8002010BD0000D0010020E0
:1003D00010B5084801F00CFE08B100F0C2F8002288
:1003E0000549064802F07EFE0549044802F074FE05
:1003F000002010BD94010020941200207002002003
:10040000940A002010B509888AB20146024802F019
:10041000DBF8002010BD0000D001002010B52148FD
:1004200001F051FF08B100F09CF81F4A1D4800215F
:1004300013790BB1022B01D0C16002E04FF40053DD
:10044000C36053791BB1012B03D0022B04D001618F
:1004500005E04FF4C06301E04FF4806303619379DA
:10046000072B1DD0082B1BD10369CBB14FF4805350
:100470008360126842600C22C0E90521C16109480D
:1004800001F0BEFF08B100F06CF8074907480839D1
:1004900001220968BDE810400144024802F05CB83E
:1004A0008160E6E7D00100204C000020941200207B
:1004B000014800F095B800001002002001681823E0
:1004C000CAB2103AB2FBF3F2054B6FF30901032AEB
:1004D0009B5CC36500D9091D816508467047000013
:1004E000B845000810B5014600208B698A6A4FF0B4
:1004F000C07453B1B3F5005F15D072B1012A0CD0AE
:10050000022A0AD0032A09D104E01AB1012A06D02E
:10051000022A03D1C96AC90100D5012010BDC96AE8
:10052000A142FAD010BD002AF7D0012AF2D0022A47
:10053000F3D0032AF3D010BD30B50468256825F444
:1005400080252560046863608368402B036803D0BE
:1005500099600068C26030BD9A600068C16030BDBB
:100560007047704790F83510022903D0802141650B
:1005700001207047052180F835100068016821F0DE
:10058000010101600020704770B5040025D094F887
:100590003500022820D02068016821F001010160A7
:1005A0002068002505602068456020688560206817
:1005B000C560206805612168212048612046FFF759
:1005C0007DFF94F85C203F2191408160656584F84F
:1005D000355084F83450002070BD012070BD0000FB
:1005E0002DE9F84304464FF00009CDF80090634828
:1005F0004FF41651A56D0068B0FBF1F72E6894F822
:100600005C10082000FA01F131420FD021680A681D
:1006100052070BD50A6822F004020A6094F85C10B5
:100620008840A860606D40F00100606594F85C103F
:100630004FF0010808FA01F0304208D021684969FA
:10064000090604D5A860606D40F00200606594F86A
:100650005C1004208840304208D02168096889076E
:1006600004D5A860606D40F00400606594F85C10EB
:1006700010208840304218D021680968090714D535
:10068000A86020680168490304D50068000308D504
:10069000A16C07E00168C90503D4016821F00801D5
:1006A0000160216C09B12046884794F85C10202035
:1006B0008840304231D021680968C9062DD5A8602C
:1006C00094F8350005282068016806D0490347D50D
:1006D000006800031DD4616C1CE021F0160101606C
:1006E0002068416921F080014161206C08B9A06C4B
:1006F00020B12068016821F00801016094F85C10C5
:100700003F208840A86084F8349084F83580216DBB
:100710001FE0E16B09B120468847606D00282BD0AF
:10072000606DC00714D0052084F83500206801688A
:1007300021F0010101600098401C0090B84203D8EC
:1007400020680068C007F6D184F8349084F83580BA
:10075000E16C002910D001B02046BDE8F043084705
:100760000168C905D5D4016821F01001016084F841
:10077000349084F83580CCE7BDE8F8837000002021
:100780002DE9F041044600F029FA06465CB1002547
:1007900084F83450022084F835002068016821F084
:1007A000010101600DE00120BDE8F08100F016FAC2
:1007B000801B052805D920206065032084F83500BA
:1007C000F2E720680068C007F0D12268116820486D
:1007D0000140D4E901031843D4E9033633431843F5
:1007E00063691843A3691843E3691843236A1843EC
:1007F0000843616A042903D1D4E90B131943084360
:10080000106020684069666A20F0070130460E4398
:10081000012704280CD1A06A0643E06A40B12046B3
:10082000FFF760FE20B14020606584F83570BAE7BC
:10083000206846612046FFF741FE94F85C203F2186
:1008400091408160656584F835700020ACE7000058
:100850003F8010F02DE9F0410446866D90F8340099
:10086000002501280DD0012084F8340094F835705B
:100870000020012F07D084F8340002252846BDE867
:10088000F0810220FBE7022784F83570606520467E
:10089000FFF752FE94F85C103F208840B06020685B
:1008A000016841F0160101602068416941F0800152
:1008B0004161206C20B12068016841F008010160AD
:1008C0002068016841F001010160D7E770B5044676
:1008D00000F084F90546601C02D004480078044406
:1008E00000F07CF9401BA042FAD370BD64000020E8
:1008F0002DE9F04FDFF808B100224FF001094FF069
:100900000F0A00BF09FA02F401EA0403A34272D1FC
:10091000066857000325BD40AE430660D60800EBCD
:100920008606D6F820C057074FEAD7680AFA08F7B4
:100930002CEA070CC6F820C08668AE43866046687D
:10094000A6434660C468AC43C46022F003055D441E
:10095000D5F808689407270F0AFA07F4DFF8A4C04F
:100960002640604502D14FF0000C2BE0DFF898C024
:10097000604502D14FF0010C24E0DFF890C06045E3
:1009800002D14FF0020C1DE0DFF884C0604502D1B7
:100990004FF0030C16E0DFF87CC0604502D14FF049
:1009A000040C0FE0DFF870C0604502D14FF0050C79
:1009B00008E0DFF868C0604502D14FF0060C01E0A6
:1009C0004FF0070C0CFA07FCB44514D1D5F80868B1
:1009D000A643C5F80868124C25689D432560241D70
:1009E00025689D432560241D25689D432560241DA1
:1009F00025689D432560521C102A83D3BDE8F08FE3
:100A000000300140000002400004024000080240A3
:100A1000000C024000100240001402400018024086
:100A2000003C01402DE9F84FDFF874B100224FF08F
:100A300001084FF0030A4FF00F090BF1040E00BF3D
:100A40000B6808FA02F42340A3426ED14D68022DD0
:100A500001D0122D0ED1D50800EB850CDCF820500A
:100A60005607F70E09FA07F6B5430E69BE402E4346
:100A7000CCF82060066855000F790AFA05FC07F0EB
:100A8000030726EA0C06AF40374307604E68012E85
:100A900005D0022E03D0112E01D0122E0ED1866861
:100AA000CF6826EA0C06AF40374387604668A64306
:100AB0000C79C4F30014944034434460C4688E68D5
:100AC00024EA0C04AE402643C6604C68E40060D5BE
:100AD000344C256845F480452560246822F00305E0
:100AE00004F480440094304C2E19D6F80848950739
:100AF0002F0F09FA07F5AC432C4DA84201D1002570
:100B00001FE02B4DA84201D101251AE0294DA84232
:100B100001D1022515E0284DA84201D1032510E09E
:100B2000264DA84202D104250BE032E0244DA84214
:100B300001D1052505E0234DA84201D1062500E09D
:100B40000725BD402543C6F80858DBF800405D4640
:100B50004E689C43F60300D51C432C60DEF8004031
:100B600075464E689C43B60300D51C432C600C4D63
:100B700008352C684E689C43F60200D51C432C6057
:100B8000074D0C352C684E689C43B60200D51C43BB
:100B90002C60521C102AFFF453AFBDE8F88F000000
:100BA000003C014044380240003001400000024057
:100BB0000004024000080240000C02400010024005
:100BC000001402400018024042694A4042617047E6
:100BD0000AB1816170470904FBE7000001488068A1
:100BE00070470000640000200248816802781144C8
:100BF00081607047640000200B4810B5016841F423
:100C000000710160016841F480610160016841F494
:100C100080710160032000F077F8002000F006F8F2
:100C200000F024F8002010BD003C024070B50D4DCE
:100C300004464FF47A712878B1FBF0F00A4909684C
:100C4000B1FBF0F001F05CF948B9102C07D200229A
:100C50002146501E00F038F800206C6070BD012065
:100C600070BD000064000020700000200A4808B534
:100C7000016841F480410160006800F48040009008
:100C80000548001F016841F080510160006800F0D4
:100C90008050009008BD00004438024000F01F0260
:100CA000012191404009800000F1E020C0F880114E
:100CB000704700F01F02012191404009800000F1BF
:100CC000E020C0F800117047F0B40E4B1B680C46D2
:100CD000C3F30223C3F10705042D00D90425191D10
:100CE000072901D2002300E0DB1E012606FA05F1E8
:100CF000491E214099409E40761E16403143F0BC6B
:100D000001F07ABD0CED00E0064900F0070208682A
:100D10004FF6FF03184040EA0220034A10430860E0
:100D2000704700000CED00E00000FA0501680122A8
:100D3000C0F8F823886B40F40030886300207047C7
:100D400001220168C0F8F423002280F8EC238869AE
:100D500040F000608861486D024A104348650020F9
:100D6000704700000300001070B5164D0446A1B195
:100D7000012911D12068D0F8001E41F00101C0F80E
:100D8000001ED4F8FC0302F031FD206A002803D0D5
:100D9000286840F00600286070BD206A28B101F084
:100DA00089FD286820F0060028602068D0F8001E21
:100DB00021F00101C0F8001ED4F8FC03BDE870402A
:100DC00002F0A2BC10ED00E0006841620020704714
:100DD000F0B500680023446A31B1856A4FF4827629
:100DE00004EB15444D1E0AE044EA024181620FE023
:100DF00006EB8307C7595B1C04EB1744DBB2AB421D
:100E0000F6DB4FF4807303EB810144EA0242425067
:100E10000020F0BDD0F8FC0302F0DDBBC1EBC10245
:100E200000EB8202D0F8FC03526C02F04ABBC1EB2B
:100E3000C10200EB8202D0F8FC03D2F8042202F0D7
:100E400095BBD0F8FC0302F0C8BB10B504460A46B7
:100E50000B0601F07F00C0EBC00104EB810101D55E
:100E6000383101E001F5FC710870D009487094F840
:100E7000B803012809D0012084F8B803206802F0E3
:100E8000E1FE002084F8B80310BD022010BD70B54B
:100E90000A460446090602F07F0005D5C0EBC001F2
:100EA00004EB8101383105E0C2EBC20104EB8101A2
:100EB00001F5FC7100258D700870D009487094F818
:100EC000B803012809D0012084F8B803206803F092
:100ED000A4F884F8B853002070BD022070BD01F062
:100EE0000F01C1EBC10100EB8100B0F8100280B22C
:100EF000704770B504460D460E0601F07F00C0EB4A
:100F0000C00104EB810101D5383101E001F5FC712C
:100F1000ED0908704D708A60CB7000D0C880002544
:100F2000022B00D10D7194F8B803012809D00120DB
:100F300084F8B803206802F0D9FD284684F8B85335
:100F400070BD022070BD70B50C4601F07F05C5EB89
:100F5000C50100EB8101C1F80C32C1F80422002365
:100F6000C1F8103281F8F93181F8F851036901F5BF
:100F7000FC71012B00D10A616206027C006803D07B
:100F800003F0ACF8002070BD02F088FFFAE770B5FE
:100F90000D460446090605F07F0005D5C0EBC001EB
:100FA00004EB8101383105E0C5EBC50104EB81019B
:100FB00001F5FC7101228A700870E809487094F804
:100FC000B803012807D084F8B823206803F057F845
:100FD000680602D007E0022070BD217C04F56F7224
:100FE000206802F0FBFF002084F8B80370BD70B5E4
:100FF0000C4601F07F05C5EBC50100EB8101CB6418
:101000004A6400230B65012381F8393001F8385F09
:101010000369012B00D10A616206027C006803D0DB
:1010200003F05CF8002070BD02F038FFFAE7000022
:101030002DE9F84F044600680026054603F0A2F9A2
:1010400000287DD1206803F0C6F9002878D02068F8
:1010500003F0C1F9800704D52068416901F002015D
:101060004161206803F0B7F9010304F56F704FF098
:10107000010A4FF00009009055D5206803F08DF962
:1010800007464EE0F8074AD0F1B2206803F09BF91A
:101090008046C00728D005EB4612C2F808AB20698D
:1010A000012811D1C6EBC60004EB8000D2F8102B4A
:1010B000D0F80012C2F312028A1AC0F81022D0F837
:1010C00004221144C0F80412F1B22046FFF7AFFE2B
:1010D0002069012808D13EB9D4F80C0220B9206853
:1010E0000121009A02F07AFF5FEA087007D52046D6
:1010F00000F022FB05EB46110820C1F8080B5FEA5F
:10110000C86004D505EB46111020C1F8080B5FEA52
:10111000886004D505EB46112020C1F8080B7F0834
:10112000761C002FAED1206803F055F940034FF034
:10113000400B5ED5206803F029F90746002656E0EB
:10114000FAE1F80751D0F1B2206803F02DF980469A
:10115000C00724D0D5F834280AFA06F08243C5F82F
:10116000342805EB4610C0F808A92069012807D1EA
:10117000C6EBC60004EB8000D0E9102111444164A5
:10118000F1B22046FFF74AFE2069012807D136B99F
:10119000E06C20B920680121009A02F01FFF5FEA8D
:1011A000087004D505EB46110820C1F808095FEA6C
:1011B000C86004D505EB46111020C1F808095FEAA4
:1011C000486003D505EB4611C1F808B95FEA88709D
:1011D00004D505EB46100221C0F808195FEA086043
:1011E00003D53146204601F01DFB7F08761C002FF9
:1011F000A7D1206803F0EFF8002811DAD5F8040829
:1012000020F00100C5F8040894F8EC0301283AD056
:10121000204600F077FA2068416901F00041416101
:10122000206803F0D8F800050BD5D5F80808C007EA
:1012300002D0204600F09CFA2068416901F4006168
:101240004161206803F0C7F800010AD520684169B0
:1012500001F00061416194F8EC03D8B1204600F040
:1012600087FA206803F0B7F8C00460D5D5F8040801
:1012700020F00100C5F804081021206803F052F89E
:101280000020FF211BE084F8EC9300212046FFF7AB
:101290006BFDC0E784F8ECA32068406D0121C0F32A
:1012A0008300C4F8F0032046FFF75EFDD9E700BFD6
:1012B00005EB4012C2F80819C2F8081B401C62680E
:1012C0008242F5D84FF0FF30C5F81808D5F81C0851
:1012D00040F00110C5F81C08206B60B1D5F88408F7
:1012E00040F00B00C5F88408D5F8440840F00B0026
:1012F000C5F844080BE0D5F8140840F02B00C5F8F9
:101300001408D5F8100840F00B00C5F81008D5F8FF
:10131000000820F4FE60C5F80008217C2068009ACF
:1013200002F05CFE2068416901F48051416120684F
:1013300003F051F880047DD5206802F017FC206886
:10134000C16821F47051C160206802F0FDFF78B1DE
:101350000320C4F814B0E06000F0EAFB7749784A53
:10136000014491420AD22068C16841F4705158E0AA
:101370004FF40070C4F80C90606136E07149724A15
:101380000144914204D22068C16841F4605148E0B0
:101390006E496F4A0144914204D22068C16841F409
:1013A00050513EE06B496C4A0144914204D220689E
:1013B000C16841F4405134E06849694A01449142AE
:1013C00004D22068C16841F430512AE06549664A78
:1013D0000144914204D22068C16841F4205120E0C8
:1013E0006249634A0144914204D22068C16841F4D1
:1013F000105116E05F49604A0144914204D22068CE
:10140000C16841F400510CE05C4908445C498842E1
:101410002068C16803D241F4E05102E00AE041F4DF
:10142000C051C160204600F05DF92068416901F4B7
:1014300000514161206802F0CEFFC00636D5206819
:10144000816921F010018161D5F8208008F00F003A
:10145000C0EBC00004EB8007C8F3434007F5FC77FE
:10146000022802D0062812D01BE047F6F07118EAD5
:10147000010F16D0C8F30A1290462846F96802F008
:10148000AEFFF8684044F860B869404408E00822BC
:101490002846009902F0A3FFB969C8F30A1008446E
:1014A000B8612068816941F010018161206802F013
:1014B00092FF000707D5204600F028F9206841690F
:1014C00001F008014161206802F085FFC00208D5E3
:1014D000F1B2204600F056F82068416901F480110D
:1014E0004161206802F077FF800208D5F1B2204602
:1014F00000F04CF82068416901F400114161206856
:1015000002F069FF400007D52046FFF783FC206802
:10151000416901F080414161206802F05CFF4007B1
:101520000AD520684568680702D52046FFF789FC80
:101530002068416829434160BDE8F88F405327FF88
:1015400000350C00401E1BFF40420F0000DC0BFF6B
:10155000804F1200808CF9FE20D6130060B6E5FEA5
:1015600060E3160000D3CEFE40771B00C05BB3FEE5
:10157000C091210000CA91FE20753800E05459FE48
:10158000E09C4100D0F8FC0302F078B8D0F8FC03EE
:1015900002F076B8F0B58BB004004FF0000554D0DF
:1015A000032084F8B903204600F060F8206802F0B8
:1015B0006FFC04F1100128220F466846FEF74FFE2B
:1015C00094E80F0002F0ECFA0021206802F017FF07
:1015D00001260020C5EBC50104EB810181F83960CB
:1015E00001F8385FCD80C8708860C8606D1C4861A4
:1015F0000F2DEFD300214FF4827300BFC1EBC10266
:1016000004EB820203EB810582F8F90182F8F811FC
:10161000D18782F8FB01C2F80002C2F80402C2F8C6
:101620000C0222685051491C0F29E7D32822394661
:101630006846FEF714FE94E80F0002F07FFB84F882
:10164000B963606A012803D005E001200BB0F0BD4A
:101650002046FFF775FBA06A012802D12046FFF75C
:1016600065FB206802F05EFB0020EFE730B5006804
:1016700087B0B0F1A04F2ED14FF4E8500090022077
:101680000024CDE90104032003900A20134D0490A7
:1016900069462846FFF7C6F96815CDE90004694692
:1016A00028460294FFF7BEF90D48016841F0800119
:1016B00001600B481030016841F48041016000680E
:1016C000002200F48040059002214320FFF7FCFA3D
:1016D0004320FFF7EEFA07B030BD000000000240E3
:1016E0003438024010B50446C068012100B9002119
:1016F000D4F8FC0302F01AF8D4F8FC03BDE810405B
:1017000001F0E3BFD0F8FC0301F0FEBFD0F8FC030A
:1017100002F000B810B5044690F8B803012809D0CB
:10172000012084F8B803206802F07FFE002084F8CE
:10173000B80310BD022010BDD0F8FC2300F56F7176
:10174000104602F006B810B5044690F8B803012818
:101750000CD0012084F8B803206802F0D7FA206882
:1017600002F0CAFD002084F8B80310BD022010BDAD
:1017700010B50446D0F8FC0302F038F82068D0F821
:10178000001E41F00101C0F8001E206A002804D0AC
:101790000248016841F00601016010BD10ED00E053
:1017A0002DE9F84F0446007800268D4DC00708D07B
:1017B0002868616920F0C06008432860606900B94A
:1017C00001262078800708D52868A16920F0C0503C
:1017D00008432860A06900B9012620784FF0000A6C
:1017E00000074FF0010B55D57D484C38016841F09A
:1017F000805101600068DFF8EC8100F080500090BB
:10180000D8F8001041F48071C8F80010FFF7E6F92D
:10181000074604E0FFF7E2F9C01B02286FD8D8F8AA
:101820000000C005F6D56E4F1C3F386810F44070BC
:101830001FD0A18B01F4407181421AD0386820F486
:1018400040716948C0F800B0C0F800A0396038683D
:10185000C0070ED0FFF7C2F9804641F2883905E093
:10186000FFF7BCF9A0EB0801494548D83868800764
:10187000F6D5E1695A48C1F301228438032A36D0EB
:10188000016821F4F81101603868A18BC1F30B01E4
:10189000084338602078DFF85491400703D594F866
:1018A0003810C9F8E0112078C106514805D5016803
:1018B000626A21F440011143016021784FF0006712
:1018C000890609D50168A26A21F00061114301600F
:1018D000A16AB94200D101262178490605D50168DF
:1018E000226A21F080511143016066B908E0026864
:1018F000404B22F4F81219400A430260C4E754E056
:101900002068802857D15046DFF8ECA0CAF868005C
:10191000FFF764F9324E80468C3E05E0FFF75EF932
:10192000A0EB0800022840D830680001F6D4616BB3
:10193000C9F8D81020683149C20701D062697AB16C
:10194000820701D5A2695AB1820602D5A26ABA42BB
:1019500006D040060FD5206A68B9A06AB8420AD1FD
:10196000D4E9010240EA8210227B237C120642EA7B
:10197000037210430860207800060AD5D4E90102FA
:1019800040EA8210227B237C120642EA0372104353
:101990000860CAF868B0FFF721F9074608E000BF01
:1019A000FFF71CF9C01B022802D90320BDE8F88FFD
:1019B00030680001F4D52088C00505D52868E16AA3
:1019C00020F00040084328602088800505D528685D
:1019D000216B20F40040084328600020E6E7000067
:1019E0008C38024000700040400E474200104742D1
:1019F00094380240FFFCFF0F000047428438024049
:101A00002DE9F0470E46050065D0DFF81481D8F8BF
:101A10000000F7B200F00F00B04207D288F8007063
:101A2000D8F8000000F00F00B04254D128683D4CB7
:101A3000810712D5400703D5206840F4E0502060AC
:101A40002878000703D5206840F4604020602068B3
:101A5000A96820F0F000084320602878C0072DD046
:101A6000304968680839012812D0022813D00328A9
:101A700011D00968890700292DDA216821F00301B6
:101A800001432160FFF7AAF8814641F2883A0EE04F
:101A900009688903EFE709688901ECE7FFF79EF819
:101AA000A0EB0901514502D90320BDE8F087206869
:101AB000696800F00C00B0EB810FEFD1D8F800108E
:101AC000404601F00F01B14207D90770006800F0ED
:101AD0000F00B04201D00120E7E72878400705D584
:101AE0002068E96820F4E050084320602878000767
:101AF00006D52068296920F4604040EAC1002060D2
:101B000000F03CF82168084AC1F30311515CC84059
:101B1000064908600020FFF789F80020C5E70000AB
:101B2000003C024008380240C04500087000002018
:101B30000148006870470000700000200448054913
:101B400000680968044AC1F38221515CC8407047AB
:101B50007000002008380240D045000804480549BC
:101B600000680968044AC1F34231515CC8407047BB
:101B70007000002008380240D0450008154810B514
:101B8000006810F00C02144813D04110042A0FD042
:101B9000082A0ED10F4C241F2268236802F03F024E
:101BA0005B0207D52068C0F38810A0FB010106E0A6
:101BB000084610BD2168C1F38811A1FB0001002374
:101BC000FEF71CFB2168C1F30141491C4900B0FB31
:101BD000F1F010BD083802400024F4002DE9F84F60
:101BE00005460078DFF800B3C04CC0074AD0DBF8E8
:101BF00000105846C1F38101012908D00068C0F3E4
:101C0000810002280AD1201D0068400206D5206804
:101C1000800337D56868002872D033E06868B0F573
:101C2000803F10D0B0F5A02F206810D020F4803075
:101C30002060206820F4802020606868A8B1FEF74A
:101C4000CDFF06460DE0206840F48030F4E740F414
:101C500080202060F7E700BFFEF7C0FF801B6428EC
:101C60006FD820688003F7D50CE0FEF7B7FF064673
:101C700005E000BFFEF7B2FF801B6428F0D82068A3
:101C80008003F7D42878DFF8688280074FF00009D6
:101C900040D5DBF80010584611F00C0F09D0006851
:101CA000C0F3810002280BD18F48001F006840025A
:101CB00006D42068800715D5E868012820D111E0F6
:101CC000E868B8B10120C8F80000FEF787FF0646B3
:101CD00005E000BFFEF782FF801B0228C0D8206805
:101CE0008007F7D52068296920F0F80040EAC10094
:101CF00020600FE0C8F80090FEF770FF064606E08F
:101D0000EFE000BFFEF76AFF801B022819D82068A9
:101D10008007F7D42878000722D5734E7548696983
:101D20006C3679B101210160FEF758FF074604E0E7
:101D3000FEF754FFC01B022803D830688007F7D590
:101D40000EE089E0C0F80090FEF748FF074604E087
:101D5000FEF744FFC01B02287ED830688007F7D406
:101D60002878400768D5DFF880A100270AF1380AF3
:101D7000DAF80000C0000BD4DAF8001041F080510E
:101D8000CAF80010DAF80000012700F08050009037
:101D9000594E3068C00510D4306840F4807030600F
:101DA000FEF71CFF009005E0FEF718FF0099401AAF
:101DB000022851D83068C005F6D54B4EA868683661
:101DC00001280FD00528306810D020F001003060C5
:101DD000306820F004003060A868B8B1FEF7FEFE5D
:101DE00000900FE0306840F00100F4E740F004009C
:101DF0003060F7E7FEF7F2FE0099411A41F28830B1
:101E0000814266D830688007F4D50EE0FEF7E6FE22
:101E1000009007E0FEF7E2FE0099411A41F2883097
:101E2000814256D830688007F4D42FB1DAF8001018
:101E300021F08051CAF80010A869D0B3DBF8001077
:101E4000C1F3810102294CD00228484607D0C8F8C6
:101E50006000FEF7C3FE00E03BE005463CE047467D
:101E6000C8F86000FEF7BAFE064604E0FEF7B6FECC
:101E7000801B02282DD820688001F7D4F5E90701DE
:101E80000843E9681D4A490802EB0141AA6841EA92
:101E900082110843297C40EA0160297D40EA0171F2
:101EA0001148001F016001203866FEF797FE0546C5
:101EB00005E014E0FEF792FE401B022809D82068D6
:101EC0008001F7D50BE000BFFEF788FE401B02281B
:101ED00002D90320BDE8F88F20688001F4D40020E7
:101EE000F8E70120F6E70000083802400038024019
:101EF00000004742800E4742007000400000FFFF94
:101F000010B5401EB0F1807F01D3012010BD4FF00D
:101F1000E02460610F21601700F06EFC0020A061DA
:101F200007202061002010BD7047704730B590F841
:101F30003820012A20D0012280F83820022380F89E
:101F4000393003685C6824F070045C6003685C6886
:101F50000D682C435C6003689C6824F080049C60DE
:101F600003689C6849680C439C6080F83920002114
:101F700080F83810084630BD022030BD10B504008E
:101F800003D094F8390010B107E0012010BD002003
:101F900084F83800204600F00DF8022084F839005B
:101FA000211D206800F004FD012084F83900002084
:101FB00010BD000008B500680B49884212D10B48DB
:101FC000016841F0010101600068002200F0010099
:101FD000009002211920FEF777FEBDE80840192085
:101FE000FEF767BE08BD0000000001404438024013
:101FF0000168CA6842F00102CA600068016841F0E5
:10200000010101600020704770B5044690F8380067
:10201000012817D0012584F83850022084F83900AF
:102020002068826822F0770222F47F42826008688A
:10203000502837D00DDC202859D005DC88B3102873
:1020400041D151E0022070BD302853D040283AD110
:102050003FE060282ED070280BD0B0F5805F03D011
:10206000B0F5005F2FD110E02068816821F00701F2
:1020700015E0CB68D1E90121206800F0F9FC216866
:10208000886840F0770088601DE0CB68D1E90121C5
:10209000206800F0EDFC2068816841F48041816097
:1020A00011E01EE0CA684968206800F0F3FC502186
:1020B000206806E0CA684968206800F0FCFC6021DE
:1020C000206800F0DFFC84F83950002084F83800E4
:1020D00070BDCA684968206800F0DCFC40212068B7
:1020E000EFE700212068ECE710212068E9E72021D4
:1020F0002068E6E730212068E3E7704770B50446C2
:10210000006801694FF00005C943890715D4C1680B
:10211000C943890711D4E91E016101202076206896
:1021200080698007204602D0FFF7E7FF04E000F057
:1021300098F8204600F096F8257620680169C94392
:10214000490717D4C168C943490713D46FF0040184
:102150000161022020762068806910F4407F2046CB
:1021600002D0FFF7CAFF04E000F07BF8204600F041
:1021700079F8257620680169C943090716D4C16832
:10218000C943090712D46FF00801016104202076C9
:102190002068C0698007204602D0FFF7AEFF04E048
:1021A00000F05FF8204600F05DF8257620680169B0
:1021B000C943C90617D4C168C943C90613D46FF00F
:1021C00010010161082020762068C06910F4407F6A
:1021D000204602D0FFF791FF04E000F042F82046CD
:1021E00000F040F8257620680169C943C90708D185
:1021F000C168C943C90704D1891E0161204600F0A6
:1022000033F820680169C943090609D4C168C94384
:10221000090605D46FF0800101612046FFF784FEB6
:1022200020680169C943490609D4C168C943490600
:1022300005D46FF040010161204600F043F82068AA
:102240000169C94389060BD4C168C943890607D40B
:102250006FF0200101612046BDE87040FFF765BEC8
:1022600070BD70477047000070B54FF48041114851
:10227000FEF7AAFC104CD4E90010884218D002D90D
:10228000C0F5006501E0A1EB00050C49AAB20144CC
:102290000B4800F027FF0A4800F064FF002807D130
:1022A000606828446060B0F5006F01D10020606074
:1022B00070BD000000040240440000209412002081
:1022C00070020020704710B504000ED0242084F85E
:1022D0003900204600F0C6F80020E06384F8390099
:1022E00084F83A0084F8380010BD012010BD704712
:1022F00070B5026804461068D168536910F00F0F7A
:1023000050D003F0010501F4907635435DD0C2074B
:1023100005D0CA0503D5E26B42F00102E263420731
:1023200005D5DA0703D0E26B42F00202E2638207CE
:1023300005D5DA0703D0E26B42F00402E26302073C
:1023400005D5DA0703D0E26B42F00802E263E26BE4
:10235000002A33D0800604D5880602D5204600F036
:102360001CFC20684069E16BC0F38010090700D4B1
:1023700028B3204600F0FAFB2068416949061AD5C7
:10238000416921F040014161606BA0B11B490165C9
:10239000606BFEF7E7F8002810D0606B016DBDE8B8
:1023A00070400847830610D58B060ED52046BDE841
:1023B000704000F0F2BB2046FFF799FF70BD204649
:1023C000FFF795FF0020E06370BD030606D50B06FE
:1023D00004D52046BDE8704000F07CBD4006F3D532
:1023E0004806F1D5D168204621F04001D160202176
:1023F00084F8391000F028F970BD0000DB2A0008CD
:1024000070B5040004D094F83900002510B106E03E
:10241000012070BD84F83850204600F043F8242095
:1024200084F839002068C16821F40051C160204659
:1024300000F0FAFB2068016921F4904101612068F5
:10244000416921F02A0141612068C16841F40051CD
:10245000C160E563202084F8390084F83A00002048
:1024600070BD000010B5044600680B49884211D1C8
:102470000A48016821F4802101604FF44071084846
:10248000FEF736FA206BFEF77FF8BDE810402720F4
:10249000FEF704BC10BD0000004800404038024078
:1024A000000C024070B586B0064614216846FDF760
:1024B000EFFE24493068884242D123480025016854
:1024C00041F480210160006800F4802005901E48DE
:1024D0001038016841F0080101600068694600F0A9
:1024E000080005904FF440700090022001900120F8
:1024F000029003200390072004901448FEF792FAFC
:10250000144C134820604FF0006060604020C4E924
:1025100002050001C4E90405A561E56125622046C4
:102520006562FEF72DF908B1FEF71BF8346300224F
:1025300002212720A663FEF7C7FB2720FEF7B9FB81
:1025400006B070BD0048004040380240000C024018
:10255000586002401002002090F83A30202B1DD124
:10256000D1B1CAB190F83830012B17D08162828581
:10257000C2850021C163222280F83A2080F83810F9
:1025800001684A6942F001024A610068C16841F489
:102590009071C16000207047012070470220704791
:1025A000074A1168491C1160B1F5006F01D1002183
:1025B00011600449126811440122FFF7CDBF0000E9
:1025C000440000209412002070B5044690F83900B1
:1025D000202830D169B362B394F8380001282AD09A
:1025E000012084F838002162A284E2840025E5639A
:1025F000212084F83900236B1048D863236B1048DE
:102600001864236B0F48D864206B13460565266851
:10261000206B321DFEF71EF921686FF04000086044
:1026200084F838502068416941F080014161002000
:1026300070BD012070BD022070BD0000352B000868
:10264000632B0008EB2A0008014800F029BD0000B8
:10265000700200207047FEE72DE9F04387B0142197
:102660006846FDF715FE3B480024016841F004016F
:102670000160016801F004010591016841F08001E9
:102680000160016801F080010591016841F00201DB
:102690000160016801F002010591016841F0080143
:1026A0000160016801F008010591016841F04001F5
:1026B0000160016801F040010591016841F00101EC
:1026C00001600068244F00F001004FF4814505903F
:1026D000002229463846FEF77BFADFF88080002288
:1026E00040214046FEF774FADFF874907E15002210
:1026F00031464846FEF76CFA300100901948CDE9A2
:10270000010469464846FEF78DF900950125CDE99B
:102710000154694638460394FEF784F9402000903E
:10272000CDE90154694640460394FEF77BF98020C9
:10273000CDE90004694640460294FEF773F900961D
:10274000CDE90154694648460394FEF76BF907B09A
:10275000BDE8F08330380240000402400018024017
:10276000000802400000111010B586B00024124885
:10277000009401940294039404940E49059401601A
:102780005F21C0E9011440F2E731C0E9031444615C
:10279000FFF7F4FB4FF48050009069460648FFF7BE
:1027A00033FC049404A904480594FFF7BFFB06B06A
:1027B00010BD0000000001409401002010B500226F
:1027C0000849094800F048FE0849074801F03BF86D
:1027D0000749054800F078FCBDE81040024801F0C8
:1027E0007FB800000000002070020020540100208B
:1027F00054000020FEE770470907090E002806DA9A
:1028000000F00F0000F1E02080F8141D704700F187
:10281000E02080F8001470470148FEF709BC000072
:10282000940400202DE9F84F0F46C1EBC70100EBDF
:10283000810582460668D5E91301441A286C3835AB
:10284000A04200D20446E01C4FEA900806EB47196C
:1028500016E0441AA868A04200D20446E01C4FEAE1
:1028600090089AF810000090A3B2FAB23046E968D6
:1028700001F0ECFDE8682044E860A8692044A86104
:10288000D9F8180980B2404505D9D5E9050181423A
:1028900001D20028DDD134B90120D6F83418B8406F
:1028A0008143C6F834180020BDE8F88F70477047A0
:1028B000FEF79AB930B5A3B034216846FDF7E8FCBD
:1028C00014211CA8FDF7E4FC3C210DA8FDF7E0FC59
:1028D0001D480024016841F080510160006800F04B
:1028E000805021901948016841F44041016000681E
:1028F000022500F440402190012000904FF4A020D8
:1029000001906805CDE9065008204FF4C071CDE96B
:1029100008010421CDE90A100C956846FFF75EF91D
:102920000F20CDE91C05E802CDE91E4003211CA8BB
:102930002094FFF765F8202017940D900DA8FEF75E
:102940002FFF23B030BD000040380240007000402F
:102950001048016841F4700101600F48016841F0BE
:10296000010101600C4A00210832116002680B4B22
:102970001A400260031D0A4A1A60026822F480228B
:10298000026005480C300160024958068039086031
:102990007047000088ED00E000380240FFFFF6FEBF
:1029A000103000240148FFF7A9BB0000940100206B
:1029B000F0B50268234B244D244E254F254C4FF093
:1029C000804C984209D0604507D0A84205D0B0425B
:1029D00003D0B84201D0A04204D122F0700E4A6860
:1029E00042EA0E0298421BD0604519D0A84217D087
:1029F000B04215D0B84213D0A04211D0164DA84213
:102A00000ED0164DA8420BD0154DA84208D0154D3A
:102A1000A84205D0144DA84202D0144DA84203D1BB
:102A200022F44075CA682A4302608A68C2620A6852
:102A30008262984201D0A04201D10969016301215B
:102A40004161F0BD0000014000040040000800406A
:102A5000000C0040000401400040014000440140DF
:102A60000048014000180040001C004000200040C9
:102A700010B5846842EA032224F47F440A432243C7
:102A8000826010BD826822F070020A4342F00701A2
:102A90008160704710B5036A046A24F0010404627F
:102AA000846924F0F00444EA021423F00A020A4381
:102AB0008461026210BD10B5036A23F01003036243
:102AC0008369046A23F4704343EA023224F0A003CA
:102AD00043EA01118261016210BD10B5806B0021D3
:102AE000C185C184FFF703FC10BD70B5846B2068FD
:102AF000406994F83910C0F3C0100025212904D191
:102B000018B1E584204600F03FF82068406994F849
:102B10003A10C0F38010222904D118B1E58520466F
:102B200000F024F8E06B40F01000E0632046FFF76F
:102B3000DEFB70BD10B50146806B09680968C905E8
:102B40000CD40021C18401684A6922F080024A61E4
:102B50000068C16841F04001C16010BDFFF774FD1D
:102B600010BD10B5806BFFF775FD10BD0168CA6818
:102B700022F49072CA6001684A6922F001024A6137
:102B8000202180F83A1070470168CA6822F0C0021C
:102B9000CA60202180F83910704710B590F83A10BB
:102BA000222901D0022010BD8168B1F5805F11D0CB
:102BB0000169002901681FD0496801F07F03816A1B
:102BC0004A1C82620B70C18D491E0904090CC18523
:102BD00018D026E00269816A002A0268526805D08E
:102BE000D2B20A80816A491C8162ECE7C2F3080212
:102BF0000A80816A891CF7E74A68816A4B1C8362F4
:102C00000A70E0E70168CA6822F49072CA6001683D
:102C10004A6922F001024A61202180F83A10FFF748
:102C2000BFFC002010BD00002DE9F0410446006803
:102C3000016921F44052E168114301612168C868CB
:102C400049F20C6290432369A268E5691A436369FB
:102C50002B431A430243CA602168486920F440723A
:102C6000A06910434861E1696425B1F5004F9748B8
:102C7000974A21684FF032083FD0914201D08142FB
:102C80007CD1FEF76BFF00EBC00101EB0010616827
:102C90008900B0FBF1F6FEF761FF00EBC00101EB2C
:102CA000001061688900B0FBF1F0B0FBF5F06FF047
:102CB0001801484306EB800108EB0110B0FBF5F06A
:102CC00000F0F006FEF74AFF00EBC00101EB001038
:102CD00061688900B0FBF1F0B0FBF5F006EB00167F
:102CE000FEF73CFF00EBC00101EB001061688900BA
:102CF000B0FBF1F7FEF732FFD2E0914201D0814202
:102D00003DD1FEF72BFF00EBC00101EB0010616825
:102D10004900B0FBF1F0B0FBF5F00601FEF71EFF35
:102D200000EBC00101EB001061684900B0FBF1F756
:102D3000FEF714FF00EBC00101EB001061684900D1
:102D4000B0FBF1F0B0FBF5F06FF01801484307EB72
:102D5000800108EBC100B0FBF5F000F0F80006EBD5
:102D60004006FEF7FBFE00EBC00101EB00106168BE
:102D70004900B0FBF1F7FEF7F1FE3CE055E0FEF74D
:102D8000DDFE00EBC00101EB001061684900B0FB03
:102D9000F1F0B0FBF5F00601FEF7D0FE00EBC0014C
:102DA00001EB001061684900B0FBF1F7FEF7C6FEC9
:102DB00000EBC00101EB001061684900B0FBF1F0CD
:102DC000B0FBF5F06FF01801484307EB800108EB0A
:102DD000C100B0FBF5F000F0F80006EB4006FEF78E
:102DE000ADFE00EBC00101EB001061684900B0FBD3
:102DF000F1F7FEF7A3FE00EBC00101EB00106168E4
:102E00004900B0FBF1F0B0FBF5F06FF0180148435A
:102E100007EB800108EBC100B0FBF5F000F0070004
:102E2000216830448860BDE8F081FEF787FE00EB42
:102E3000C00101EB001061688900B0FBF1F6FEF7FC
:102E40007DFE00EBC00101EB001061688900B0FB62
:102E5000F1F0B0FBF5F06FF01801484306EB80018C
:102E600008EB0110B0FBF5F000F0F006FEF766FE8F
:102E700000EBC00101EB001061688900B0FBF1F0CC
:102E8000B0FBF5F006EB0016FEF758FE00EBC001B4
:102E900001EB001061688900B0FBF1F7FEF74EFE10
:102EA00000EBC00101EB001061688900B0FBF1F09C
:102EB000B0FBF5F06FF01801484307EB800108EB19
:102EC0000110B0FBF5F000F00F00A9E7001401407D
:102ED0000010014090F83910212901D002207047DC
:102EE0008168B1F5805F016A0BD04A1C02620268FA
:102EF00009785160C18C491E0904090CC1840ED0A7
:102F000017E009880268C1F30801516001690029CE
:102F1000016A02D0491C0162ECE7891CFBE70168E9
:102F2000CA6822F08002CA600068C16841F04001AE
:102F3000C1600020704700000148FFF7D9B90000C8
:102F4000D0010020D0F8180220B10021C0F81412DE
:102F5000084670470220704770B50546D0F8184201
:102F600000F046FBC4F80C02D5F8180248B1D5F8B9
:102F70001C12D4F80402CA6804F5037190470020BB
:102F800070BD022070BD70B504460025812100F09F
:102F900088FA0121204600F084FA8221204600F0C0
:102FA00080FAD4F8180250B1D4F81C0204F5067463
:102FB00040688047206801F06DFA002020602846B4
:102FC00070BD10B5D0E9864159B194F80002FF28D0
:102FD00007D08B6894F8012221469847FF2084F897
:102FE0000002002010BD00000A2101800048704747
:102FF0007C0000204321018000487047CC00002065
:10300000432101800048704788000020432101804F
:1030100000487047100100202DE9F0410446007C73
:1030200000254FF4007670B3402302228121204610
:1030300000F028FB402302220121204600F022FB61
:10304000082303228221204600F01CFB4FF4077066
:1030500001F07CFAC4F81802F0B10746D4F81C025B
:10306000006880470020C7F81402C7F81802207CC7
:10307000D7F8042290B140230121204600F015FB2F
:103080002846BDE8F081FFE7334602228121204631
:1030900000F0F8FA3346CEE70125F1E73346EBE7D7
:1030A00010B5D0F8181269B1027C002AD1F80422B8
:1030B00005D04023012100F0F8FA002010BD4FF4A4
:1030C0000073F7E7022010BD02460220002902D05B
:1030D0000020C2F81C127047D0F81802C0F8041281
:1030E00000207047D0F81802C0F81022C0F808126B
:1030F0000020704770B50646D0F8185208780C4684
:1031000010F0600121D0202927D1E288AAB1000661
:10311000607807D5D6F81C128B6829469847E28854
:10312000294617E085F80002A07985F80102E288B7
:103130002946304600F050F80FE0D6F81C126078AF
:1031400000228B682146984707E060780A2804D15E
:1031500003490122304600F059F8002070BD0000FC
:103160007800002010B5D0F8181289B1D1F81422D7
:103170000AB1012010BD0122C1F81422B1F81022B9
:1031800093B2D1F80822812100F039FB002010BD54
:10319000022010BD10B5D0F81422526890470020CC
:1031A00010BD134610B50A46002100F07EFA00203B
:1031B00010BD134610B50A46002100F020FB002088
:1031C00010BD10B50446802100F0F0FA2046BDE89D
:1031D0001040002100F0EABA10B50323C0F808211E
:1031E000C0F8F431C0F80C2113460A46002100F063
:1031F0005CFA002010BD10B505210023C0F8F411C1
:103200001A46194600F051FA002010BD10B50223ED
:103210008261C0F8F431C26113460A46002100F011
:10322000EEFA002010BD10B504210023C0F8F411FF
:103230001A46194600F0E3FA002010BD10B50A4600
:10324000024903A000F0E5F8004810BD94080020F2
:1032500043444320436F6E66696700001220088074
:10326000004870472400002010B50A46024903A018
:1032700000F0CFF8004810BD9408002043444320DC
:10328000496E746572666163650000000420088001
:10329000004870472000002010B50A46024903A0EC
:1032A00000F0B7F8004810BD9408002053544D6951
:1032B00063726F656C656374726F6E69637300002F
:1032C00010B50A46024903A000F0A3F8004810BD5B
:1032D0009408002053544D3332205669727475613E
:1032E0006C20436F6D506F727400000010B50A4679
:1032F000024903A000F08DF8004810BD940800209A
:10330000303030303030303030303141000000006B
:103310000C2008800048704738000020F8B50446AB
:1033200048880D46010A06294CD006DC01290DD03B
:10333000022910D003294FD11BE007294AD00F29B9
:103340004AD1D4F81012207CCA6937E0D4F81012A0
:10335000207C0A6832E0207C02260028D4F814027F
:1033600005D0C16A684688470146467041E0816AD7
:10337000F8E7C0B206282FD2DFE800F003080D12EC
:10338000171CD4F81012207C4A6817E0D4F81012E9
:10339000207C8A6812E0D4F81012207CCA680DE004
:1033A000D4F81012207C0A6908E0D4F81012207CAE
:1033B0004A6903E0D4F81012207C8A696946904774
:1033C000014616E0207C38B9D4F81402416B6846F7
:1033D0008847F5E7207C20B129462046FFF7F1FE1B
:1033E000F8BDD4F81402016B6846884701460720EF
:1033F0004870BDF800000028F2D0EA88002AEFD01B
:10340000824200D90246ADF800202046FFF7FEFEBA
:10341000F8BD70B5002300281DD00446002502E049
:103420006D1CEDB2641C2678002EF9D1022404EB49
:1034300045041480CC545B1C0322CA5400245B1C3A
:1034400006E0CA545B1CDAB28C54521CD3B2401C46
:103450000278002AF5D170BD10B580B1D0F81432D1
:1034600013B10023C0F8143209B1C0F810120121C1
:1034700080F8FC11027000F0BFF8002010BD02209F
:1034800010BD10B50024D0F82002FDF700FD30B1CA
:10349000012801D0022801D0022400E001242046A6
:1034A00010BD10B50024D0F82002FDF7CEFC30B1DD
:1034B000012801D0022801D0022400E00124204686
:1034C00010BD2DE9F0411746044641B1D4F814026D
:1034D00042698AB394F8FC01032842D043E0D4F84F
:1034E000F411002504F11400022933D1D0E902635C
:1034F0009E4207D9F31A83609AB239462046FFF7F5
:1035000058FE12E04068B0FBF3F103FB1101A1B9D2
:10351000984212D3D4F8F81188420ED200221146F4
:103520002046FFF746FEC4F8F85100231A46194614
:10353000204600F0BAF80DE012E0D4F81402C16899
:1035400029B194F8FC01032801D120468847204680
:10355000FFF751FE94F80002012804D184F80052CC
:1035600001E0204690470020BDE8F08170B5154687
:10357000044641B1D4F8140282693AB394F8FC01CC
:10358000032824D025E0D4F8F41104F5827003292F
:103590001FD1D0E902218A420BD9531A8360084611
:1035A000834200D303469AB229462046FFF7F9FD2D
:1035B0000FE0D4F81402016929B194F8FC01032842
:1035C00001D1204688472046FFF72DFE01E0204626
:1035D0009047002070BD0020704710B5012180F891
:1035E000FC11D0F81422017952689047002010BDD8
:1035F000D0F82002FDF773BC10B5017851BB164915
:103600000222C1F8FC03C0F820124FF0A04008606D
:10361000062048600020C1E90320C1E90502C86115
:1036200001220862C1E90902C1E90B200846FDF741
:10363000B1FF08B1FCF795FF80210748FDF7C4FBF7
:10364000402200210448FDF7C3FB802201210248EB
:10365000FDF7BEFB002010BD940400200A0601F017
:103660007F01D0F82002C1EBC10100EB810002D53F
:1036700090F83A00704790F8FA01704700207047C0
:103680000020704770B51D4613460024D0F8200274
:103690002A46FDF72EFC30B1012801D0022801D0C6
:1036A000022400E00124204670BD10B50024D0F8AB
:1036B0002002FDF748FC30B1012801D0022801D0DA
:1036C000022400E00124204610BD70B5002204460B
:1036D00040231146FFF7D6FF40252B4600228021CC
:1036E0002046C4F81051FFF7CDFF0120256284F871
:1036F000FC01D4F8180228B1D4F8140221794268E8
:1037000020469047002070BD90F8FD1180F8FC1114
:103710000020704710B590F8FC11032904D1D0F8AF
:103720001412C96901B18847002010BD017400203E
:10373000704710B50024D0F82002FDF7EBFF30B140
:10374000012801D0022801D0022400E001242046F3
:1037500010BD70B5044600F50270054600F05FF834
:103760000120C4F8F401B4F80E02C4F8F80194F88A
:10377000080210F01F010AD001290DD0022910D033
:1037800000F08001204600F011F8002070BD2946AD
:10379000204600F0AAF8F8E72946204600F08CF908
:1037A000F3E72946204600F019F9EEE710B50024AA
:1037B000D0F82002FDF7EBFB30B1012801D0022840
:1037C00001D0022400E00124204610BD10B50024E1
:1037D000D0F82002FDF7B7FF30B1012801D0022850
:1037E00001D0022400E00124204610BD90F8FC1115
:1037F00080F8FD11042180F8FC110020704710B5FD
:103800000024D0F82002FDF7F2FB30B1012801D0EE
:10381000022801D0022400E00124204610BD0A78CD
:1038200002704A7842708A78CB7802EB0322428099
:103830000A794B7902EB032282808A79C97902EBFB
:103840000121C18070470246002011B1C2F8141254
:1038500070470220704710B5D0F8142202241AB124
:103860001268904700B90024204610BD70B50E467E
:103870001A4D897804462970012928D894F8FC014A
:10388000022802D0032822D105E099B1032061600B
:1038900084F8FC0109E091B1606888420AD0C1B2A5
:1038A0002046FFF777FC297861602046FFF7D3FFB9
:1038B00002280CD02046BDE87040FFF7B4BC0220BF
:1038C00084F8FC0120466160FFF764FCF2E73146B2
:1038D0002046BDE87040FFF774BC00007400002073
:1038E00010B5FFF773FF002010BD2DE9F041002651
:1038F0004B78012532460A2B43D2DFE803F03C58CF
:103900004251420805422A27FFF708FD63E00446BA
:103910008888C8B9C888B8B9887800F07F0794F853
:10392000FC01032810D084F8FE7139462046FFF7C9
:1039300000FF2046FFF777FC1FB1022084F8FC014E
:1039400049E084F8FC5146E020461AE0FFF78EFF7C
:1039500041E0CB88012B14D190F8FC31022B02D02E
:10396000032B0ED104E08260012200F1080114E073
:103970000122011D11E090F8FC21022A04D0032A43
:1039800002D0FFF71EFC26E0C560D0F8041209B192
:103990000321C160022200F10C01FFF737FC1AE09D
:1039A00004464888012816D1C4F804520BE00446A6
:1039B00090F8FC01022801D00328C5D148880128CD
:1039C00009D1C4F80422D4F8140282682046904732
:1039D0002046FFF728FC3046BDE8F08170B50D4663
:1039E0000446287800260979C0F34110012806D042
:1039F0006878A0B301281FD003283FD107E0D4F88E
:103A000014022946826820469047002070BD94F831
:103A1000FC01022817D003282CD1688828B921B1CD
:103A2000802902D02046FFF7C1FED4F814022946AF
:103A300082682046904713E094F8FC01022802D0E7
:103A4000032817D103E0C9B180291BD116E068888B
:103A5000A0B9480604D02046FFF713FDE5E703E0D0
:103A60002046FFF7E0FB09E094F8FC01022807D0AC
:103A700003280BD029462046FFF7A3FB304670BD34
:103A80004806FBD02046FFF791FEF7E7080601F055
:103A90007F0004EB001501D5143501E005F58275B2
:103AA0002046FFF7DBFD00B10120286002222946F5
:103AB0002046FFF7ABFBE1E770B5054690F8FC0147
:103AC0000C4603280DD1207901280AD8D5F8140214
:103AD000826828469047E08830B92846FFF7A3FB64
:103AE00002E02846FFF76DFB002070BD30B54C7832
:103AF0001D4B01220D78AA40012CD0F81C4818D08B
:103B000044EA0242C0F81C280A7800EB4210D0F8C0
:103B1000002B12040BD4D0F8002B0C89C4F30A0438
:103B20002243C97843EA81410A43C0F8002B0020B0
:103B300030BD92B21443C0F81C480C7800EB44101E
:103B4000D0F800291204F2D4D0F800290D89C5F369
:103B50000A052A43C978890441EA84510A431A4371
:103B6000C0F80029E3E7000000800010D0F8001939
:103B70006FF30A01C0F80019D0F80818C1F3410129
:103B8000022905D1D0F8001941F00301C0F800194D
:103B9000D0F8041841F48071C0F804180020704770
:103BA00070B50446049D06990D9801290CD0E06873
:103BB00040F04000E060204600F028F84FF48030EC
:103BC000A063012D16D01DE0A16B21F48031A1630B
:103BD000E1680D4A1140E160E16821F44011E160C3
:103BE000012803D1E06840F48010E060204600F036
:103BF0000DF8E6E7A06840F00600A060A06840F07D
:103C00002000A060002070BDBFFFBDFF01220C4955
:103C100002E0521C8A420BD80369002BF9DA0269D0
:103C200042F001020261012204E0521C8A4201D9E1
:103C3000032070470369DB07F7D1002070470000BD
:103C4000400D0300F0B50D4604464F780126F206FC
:103C5000D3002D49287804EB4010012F14D0D0F860
:103C6000007B27F40047C0F8007B287804EB401065
:103C7000C0F8002B287804EB4010C0F8003B01206E
:103C80002A7804EB42122BE0D0F8007927F40047A1
:103C9000C0F80079287804EB4010C0F80029287893
:103CA00004EB4010C0F8003901202A7804EB4212DE
:103CB00002E0401C884211D8D2F808395B00F8D4E1
:103CC0001021204600F02EFBD4F81C0829788E40E5
:103CD000B1B2884314E0401C884201D90320F0BDF2
:103CE000D2F8083BDB06F6D4D4F8040840F4806030
:103CF000C4F80408D4F81C0829788E4020EA06404D
:103D0000C4F81C080020F0BD400D030010B5D0F829
:103D1000041821F00201C0F804180320FCF7D6FDB6
:103D2000002010BD10B5D0F8041841F00201C0F811
:103D300004180320FCF7CAFD002010BD2DE9F04750
:103D40000E460446DDE90A1A0025DDF83C80089F8E
:103D5000806B40F40010A063B8F1000F0BD1A06B92
:103D600020F40010A063206840F04000206020682C
:103D700040F0800020604FF00009C4F8009ED4F8A5
:103D80000008C4F80008012904D0D4F8000840F065
:103D9000030004E0D4F800080BB140F00100C4F8BF
:103DA00000081021204600F0BDFA204600F0AAFAD3
:103DB0004846C4F81098C4F814984FF0FF31C4F87E
:103DC0001818C4F81C984FF0904CFF2310E000BF67
:103DD00004EB4511D1F80029002A02DAC1F800C924
:103DE00001E0C1F80009C1F81009C1F808396D1CDB
:103DF000AE42EDD800210FE004EB4112D2F8005B97
:103E0000002D02DAC2F800CB01E0C2F8000BC2F8C4
:103E1000100BC2F8083B491C8E42EDD8D4F810189C
:103E200021F48071C4F81018012F0AD11449C4F884
:103E30003018D4F83018134A1143C4F83018D4F8A5
:103E40003018A0616FF0804060611FB9A06940F038
:103E50001000A061A0690C490843A061BAF1000FED
:103E600003D0A06940F00800A061B8F1010F03D1B0
:103E7000A06906490843A0610020BDE8F087000062
:103E8000000180000300010000383C800400004075
:103E9000816821F0010181600020704730B54D78C4
:103EA0004D4C0B7800EB4313012D28D0D3F8105B59
:103EB0006FF31205C3F8105B0B7800EB4313D3F8D4
:103EC000105B2540C3F8105B4B690BB18B684B61ED
:103ED0000B7800EB4313D3F8104B44F40024C3F8E1
:103EE000104B0B7800EB4313D3F8104B8D68C5F3E0
:103EF00012052C43C3F8104B012A5CD061E04D69D8
:103F0000002DD3F810593BD06FF31205C3F81059A8
:103F10000B7800EB4313D3F810592540C3F8105920
:103F20004C698B689C4200D94B610B7800EB4313C2
:103F3000D3F8104944F40024C3F810490B7800EB7F
:103F40004313D3F810494D69C5F3120554EA05042B
:103F5000C3F810490B7800EB4313D3F8004944F041
:103F60000444C3F80049012A1ED04A6912B3D0F8AC
:103F700034280B78012199400A43C0F8342829E0FD
:103F80002540C3F810590B7800EB4313D3F81049C0
:103F900044F40024C3F810490B7800EB4313D3F822
:103FA00010496FF31204D3E70A69097800EB411056
:103FB000C0F814290EE00B7800EB4313CA68C3F86D
:103FC000142B097800EB4110D0F8001B41F004419C
:103FD000C0F8001B002030BDFFFF07E00023C0F841
:103FE000103BD0F8103B43F40023C0F8103BD0F84E
:103FF000103B43F01803C0F8103BD0F8103B43F0DF
:10400000C043C0F8103B012905D1C0F8142B4FF074
:104010008021C0F8001B002070474B780A7800EB25
:104020004212012B0BD0D2F8003B23F40013C2F84C
:10403000003BCA78032A17D0022A15D01DE0D2F817
:10404000003923F40013C2F80039CA78032A01D0DA
:10405000022A12D1097800EB4110D0F8001941F082
:104060008051C0F8001908E0097800EB4110D0F841
:10407000001B41F08051C0F8001B002070474B78B6
:104080000A7800EB4212012B14D0D2F8003B002B2F
:1040900005DBD2F8003B23F08043C2F8003B0978EF
:1040A00000EB4110D0F8001B41F40011C0F8001BD8
:1040B00000207047D2F80039002B05DBD2F8003918
:1040C00023F08043C2F80039097800EB4110D0F8A2
:1040D000001941F40011C0F80019E9E778B54E78ED
:1040E0006FF06045834C0B7800EB4313012E2FD00B
:1040F000D3F8106B6FF31206C3F8106B0B7800EB5C
:104100004313D3F8106B2640C3F8106B4B69002B98
:104110007DD08C6823445B1EB3FBF4F39BB20C7818
:1041200000EB4414D4F8106B05EAC3452E43C4F8E1
:10413000106B0C7800EB4414D4F8105B8E685E436F
:10414000C6F312031D43C4F8105B012A73D0B2E01A
:104150004E6966B3D3F810696FF31206C3F810699D
:104160000B7800EB4313D3F810692640C3F81069AD
:104170004C698B681C44641EB4FBF3F305EAC3442A
:104180000B7800EB4313D3F810592C43C3F81049B4
:104190000B7800EB4313D3F810494D69C5F31205B2
:1041A0002C43C3F81049CB78012B16D027E0D3F865
:1041B00010592540C3F810590B7800EB4313D3F87E
:1041C000104944F40024C3F810490B7800EB431362
:1041D000D3F810496FF312040FE00B7800EB431390
:1041E000D3F8104924F0C044C3F810490B7800EB11
:1041F0004313D3F8104944F00054C3F81049012A7E
:1042000012D0CB78012B17D04B692BB300E037E0ED
:10421000D0F834380D780124AC402343C0F834384A
:10422000CB78012B08D017E00C7800EB44140B6915
:10423000C4F81439F4E738E0D0F80838DB050B7817
:1042400000EB4313D3F8004902D444F0005401E0DA
:1042500044F08054C3F800490B7800EB4313D3F8C3
:10426000004944F00444C3F80049CB78012B3ED107
:1042700000928A8A93B20A78C96800F0E7F836E0BB
:104280000B7800EB4313D3F8104B8D68C5F3120580
:104290002C43C3F8104B0B7800EB4313D3F8104BAF
:1042A00044F40024C3F8104B4FE70B7800EB4313A2
:1042B000CA68C3F8142BCA78012A0FD1D0F808288D
:1042C000D2050A7800EB4212D2F8003B02D443F048
:1042D000005301E043F08053C2F8003B097800EB43
:1042E0004110D0F8001B41F00441C0F8001B002031
:1042F00078BD0000FFFF07E0816841F001018160A7
:1043000000207047002110220261054A491C914299
:1043100001D9032070470369DB06F7D400207047FA
:10432000400D03000022202343EA81110161054969
:10433000521C8A4201D90320704703699B06F7D4B7
:1043400000207047400D03000021D0F8082812F02B
:10435000060F15D0D0F80828C2F34102012A0CD06C
:10436000D0F80828C2F34102032A06D0D0F8080882
:10437000C0F34100022802D002E0032100E0022144
:1043800008467047406900F001007047D0F81818DF
:10439000D0F81C08084080B27047D0F81818D0F840
:1043A0001C080840000C7047D0F81038D0F83428AA
:1043B000CA4002F0010243EAC21200EB4110D0F8F9
:1043C00008091040704700EB4111D1F8081BD0F8E4
:1043D000140808407047416980690840704710B56B
:1043E00003460020D21C920803F5805303E01C68AA
:1043F00041F8044B401C9042F9D3084610BD10B55B
:10440000C26822F0C042C260012901D021B107E098
:10441000C16841F0005102E0C16841F08041C160D3
:104420003220FCF753FA002010BDD0F8002822F407
:10443000FE62C0F80028D0F800284FF4FE6303EABB
:1044400001110A43C0F800280020704730B500244D
:10445000039D6DB9DB1C9B0800EB023000F580501A
:1044600004E000BF51F8042B0260641C9C42F9D3A5
:10447000002030BDFEE702E008C8121F08C1002A74
:10448000FAD170477047002001E001C1121F002AD5
:10449000FBD1704710B5002821D0114B0022001F1E
:1044A000196803E0814203D80A4649680029F9D116
:1044B00052B11368841A9C4204D1006818441060F9
:1044C000104602E0506000E0186039B102680B1A33
:1044D000934203D10B681A4402604968416010BDE1
:1044E0008C01002008B5FCF787FBFEF7E3F9FEF727
:1044F000B3F813480024016841F40011016000681A
:10450000224600F40010009003210E20FCF7DCFB93
:104510000E20FCF7CEFB0C480A4901604FF4E13154
:10452000C0E901140C21C460C0E904418461C46184
:10453000FDF766FFFEF742F9FEF716F9FEE7000009
:104540003038024000480040D0010020F0B50B3068
:10455000154D20F007010024144A0FE003688B4238
:104560000BD38B4205D95E1A43184768C3E900672D
:1045700000E04368136002C004E0021D10680028D8
:10458000ECD12046002802D1286808B10020F0BDF7
:10459000064A07481060074A121A22F00702C0E9CB
:1045A000002401202860D7E7900100208C01002022
:1045B0009C1A0020982000200006101600061016F5
:1045C00000000000000000000102030406070809C3
:1045D0000000000001020304F8450008000000206C
:1045E0009401000008030008CC4600089401002054
:1045F0000427000086440008135D321B088D041A4E
:1046000099041AC1041AED041A3D041A690413111D
:1046100033100C08040309041201010202021640BF
:104620008304405726020102030114050F0C1C01EC
:10463000071017B11AC21911120813D1031B08B9B8
:10464000041A61041305042A081682109324F41333
:104650000A06293F2A40201C0902435B1125C0326B
:104660000904196F120113052416100105240118FD
:1046700009010424020205240670150582030815A9
:104680001009040133020A1D07050102432C070526
:1046900081070938442A40072A8107112B0907445A
:1046A0000A2204440A16FF441319301408872F1BEA
:1046B00008F508411AC30C1A45041A5904C11A0115
:0C46C000201AF5141A0D089AE91C0000DD
:04000005080001C529
:00000001FF
